{
  "_format": "hh-sol-artifact-1",
  "contractName": "TokenizedBallot",
  "sourceName": "contracts/TokenizedBallot.sol",
  "abi": [
    {
      "inputs": [
        {
          "internalType": "bytes32[]",
          "name": "proposalNames",
          "type": "bytes32[]"
        },
        {
          "internalType": "address",
          "name": "_tokenContract",
          "type": "address"
        },
        {
          "internalType": "uint256",
          "name": "_targetBlockNum",
          "type": "uint256"
        }
      ],
      "stateMutability": "nonpayable",
      "type": "constructor"
    },
    {
      "inputs": [
        {
          "internalType": "uint256",
          "name": "",
          "type": "uint256"
        }
      ],
      "name": "proposals",
      "outputs": [
        {
          "internalType": "bytes32",
          "name": "name",
          "type": "bytes32"
        },
        {
          "internalType": "uint256",
          "name": "voteCount",
          "type": "uint256"
        }
      ],
      "stateMutability": "view",
      "type": "function"
    },
    {
      "inputs": [],
      "name": "targetBlockNum",
      "outputs": [
        {
          "internalType": "uint256",
          "name": "",
          "type": "uint256"
        }
      ],
      "stateMutability": "view",
      "type": "function"
    },
    {
      "inputs": [
        {
          "internalType": "uint256",
          "name": "proposal",
          "type": "uint256"
        },
        {
          "internalType": "uint256",
          "name": "amount",
          "type": "uint256"
        }
      ],
      "name": "vote",
      "outputs": [],
      "stateMutability": "nonpayable",
      "type": "function"
    },
    {
      "inputs": [
        {
          "internalType": "address",
          "name": "",
          "type": "address"
        }
      ],
      "name": "votePowerSpent",
      "outputs": [
        {
          "internalType": "uint256",
          "name": "",
          "type": "uint256"
        }
      ],
      "stateMutability": "view",
      "type": "function"
    },
    {
      "inputs": [],
      "name": "voteToken",
      "outputs": [
        {
          "internalType": "contract IVoteToken",
          "name": "",
          "type": "address"
        }
      ],
      "stateMutability": "view",
      "type": "function"
    },
    {
      "inputs": [
        {
          "internalType": "address",
          "name": "account",
          "type": "address"
        }
      ],
      "name": "votingPower",
      "outputs": [
        {
          "internalType": "uint256",
          "name": "",
          "type": "uint256"
        }
      ],
      "stateMutability": "nonpayable",
      "type": "function"
    },
    {
      "inputs": [],
      "name": "winnerName",
      "outputs": [
        {
          "internalType": "bytes32",
          "name": "winnerName_",
          "type": "bytes32"
        }
      ],
      "stateMutability": "view",
      "type": "function"
    },
    {
      "inputs": [],
      "name": "winningProposal",
      "outputs": [
        {
          "internalType": "uint256",
          "name": "winningProposal_",
          "type": "uint256"
        }
      ],
      "stateMutability": "view",
      "type": "function"
    }
  ],
  "bytecode": "0x60806040523480156200001157600080fd5b5060405162000e1c38038062000e1c833981810160405281019062000037919062000384565b81600160006101000a81548173ffffffffffffffffffffffffffffffffffffffff021916908373ffffffffffffffffffffffffffffffffffffffff1602179055508060028190555060005b8351811015620001165760006040518060400160405280868481518110620000af57620000ae620003ff565b5b60200260200101518152602001600081525090806001815401808255809150506001900390600052602060002090600202016000909190919091506000820151816000015560208201518160010155505080806200010d906200045d565b91505062000082565b50505050620004aa565b6000604051905090565b600080fd5b600080fd5b600080fd5b6000601f19601f8301169050919050565b7f4e487b7100000000000000000000000000000000000000000000000000000000600052604160045260246000fd5b620001848262000139565b810181811067ffffffffffffffff82111715620001a657620001a56200014a565b5b80604052505050565b6000620001bb62000120565b9050620001c9828262000179565b919050565b600067ffffffffffffffff821115620001ec57620001eb6200014a565b5b602082029050602081019050919050565b600080fd5b6000819050919050565b620002178162000202565b81146200022357600080fd5b50565b60008151905062000237816200020c565b92915050565b6000620002546200024e84620001ce565b620001af565b905080838252602082019050602084028301858111156200027a5762000279620001fd565b5b835b81811015620002a7578062000292888262000226565b8452602084019350506020810190506200027c565b5050509392505050565b600082601f830112620002c957620002c862000134565b5b8151620002db8482602086016200023d565b91505092915050565b600073ffffffffffffffffffffffffffffffffffffffff82169050919050565b60006200031182620002e4565b9050919050565b620003238162000304565b81146200032f57600080fd5b50565b600081519050620003438162000318565b92915050565b6000819050919050565b6200035e8162000349565b81146200036a57600080fd5b50565b6000815190506200037e8162000353565b92915050565b600080600060608486031215620003a0576200039f6200012a565b5b600084015167ffffffffffffffff811115620003c157620003c06200012f565b5b620003cf86828701620002b1565b9350506020620003e28682870162000332565b9250506040620003f5868287016200036d565b9150509250925092565b7f4e487b7100000000000000000000000000000000000000000000000000000000600052603260045260246000fd5b7f4e487b7100000000000000000000000000000000000000000000000000000000600052601160045260246000fd5b60006200046a8262000349565b91507fffffffffffffffffffffffffffffffffffffffffffffffffffffffffffffffff82036200049f576200049e6200042e565b5b600182019050919050565b61096280620004ba6000396000f3fe608060405234801561001057600080fd5b50600436106100885760003560e01c80639e90d0d91161005b5780639e90d0d914610118578063b384abef14610148578063c07473f614610164578063e2ba53f01461019457610088565b8063013cf08b1461008d578063160d66ae146100be5780631fe4ab19146100dc578063609ff1bd146100fa575b600080fd5b6100a760048036038101906100a29190610508565b6101b2565b6040516100b592919061055d565b60405180910390f35b6100c66101e6565b6040516100d39190610605565b60405180910390f35b6100e461020c565b6040516100f19190610620565b60405180910390f35b610102610212565b60405161010f9190610620565b60405180910390f35b610132600480360381019061012d9190610679565b61029a565b60405161013f9190610620565b60405180910390f35b610162600480360381019061015d91906106a6565b6102b2565b005b61017e60048036038101906101799190610679565b610399565b60405161018b9190610620565b60405180910390f35b61019c61049a565b6040516101a991906106e6565b60405180910390f35b600081815481106101c257600080fd5b90600052602060002090600202016000915090508060000154908060010154905082565b600160009054906101000a900473ffffffffffffffffffffffffffffffffffffffff1681565b60025481565b6000806000905060005b60008054905081101561029557816000828154811061023e5761023d610701565b5b9060005260206000209060020201600101541115610282576000818154811061026a57610269610701565b5b90600052602060002090600202016001015491508092505b808061028d9061075f565b91505061021c565b505090565b60036020528060005260406000206000915090505481565b60006102bd33610399565b905081811015610302576040517f08c379a00000000000000000000000000000000000000000000000000000000081526004016102f99061082a565b60405180910390fd5b81600360003373ffffffffffffffffffffffffffffffffffffffff1673ffffffffffffffffffffffffffffffffffffffff1681526020019081526020016000206000828254610351919061084a565b92505081905550816000848154811061036d5761036c610701565b5b9060005260206000209060020201600101600082825461038d919061084a565b92505081905550505050565b6000600360008373ffffffffffffffffffffffffffffffffffffffff1673ffffffffffffffffffffffffffffffffffffffff16815260200190815260200160002054600160009054906101000a900473ffffffffffffffffffffffffffffffffffffffff1673ffffffffffffffffffffffffffffffffffffffff16633a46b1a8846001600254610429919061087e565b6040518363ffffffff1660e01b81526004016104469291906108c1565b6020604051808303816000875af1158015610465573d6000803e3d6000fd5b505050506040513d601f19601f8201168201806040525081019061048991906108ff565b610493919061087e565b9050919050565b6000806104a5610212565b815481106104b6576104b5610701565b5b906000526020600020906002020160000154905090565b600080fd5b6000819050919050565b6104e5816104d2565b81146104f057600080fd5b50565b600081359050610502816104dc565b92915050565b60006020828403121561051e5761051d6104cd565b5b600061052c848285016104f3565b91505092915050565b6000819050919050565b61054881610535565b82525050565b610557816104d2565b82525050565b6000604082019050610572600083018561053f565b61057f602083018461054e565b9392505050565b600073ffffffffffffffffffffffffffffffffffffffff82169050919050565b6000819050919050565b60006105cb6105c66105c184610586565b6105a6565b610586565b9050919050565b60006105dd826105b0565b9050919050565b60006105ef826105d2565b9050919050565b6105ff816105e4565b82525050565b600060208201905061061a60008301846105f6565b92915050565b6000602082019050610635600083018461054e565b92915050565b600061064682610586565b9050919050565b6106568161063b565b811461066157600080fd5b50565b6000813590506106738161064d565b92915050565b60006020828403121561068f5761068e6104cd565b5b600061069d84828501610664565b91505092915050565b600080604083850312156106bd576106bc6104cd565b5b60006106cb858286016104f3565b92505060206106dc858286016104f3565b9150509250929050565b60006020820190506106fb600083018461053f565b92915050565b7f4e487b7100000000000000000000000000000000000000000000000000000000600052603260045260246000fd5b7f4e487b7100000000000000000000000000000000000000000000000000000000600052601160045260246000fd5b600061076a826104d2565b91507fffffffffffffffffffffffffffffffffffffffffffffffffffffffffffffffff820361079c5761079b610730565b5b600182019050919050565b600082825260208201905092915050565b7f747279696e6720746f20766f74652077697468206d6f7265207468616e20616c60008201527f6c6f776564000000000000000000000000000000000000000000000000000000602082015250565b60006108146025836107a7565b915061081f826107b8565b604082019050919050565b6000602082019050818103600083015261084381610807565b9050919050565b6000610855826104d2565b9150610860836104d2565b925082820190508082111561087857610877610730565b5b92915050565b6000610889826104d2565b9150610894836104d2565b92508282039050818111156108ac576108ab610730565b5b92915050565b6108bb8161063b565b82525050565b60006040820190506108d660008301856108b2565b6108e3602083018461054e565b9392505050565b6000815190506108f9816104dc565b92915050565b600060208284031215610915576109146104cd565b5b6000610923848285016108ea565b9150509291505056fea264697066735822122090ec66fd7dee548455d67c6486e3b7ebb594b32a5db0491e7bca376aa855795964736f6c63430008110033",
  "linkReferences": {},
  "deployedLinkReferences": {}
}